{"abi":[{"type":"constructor","inputs":[{"name":"_usdcToken","type":"address","internalType":"address"}],"stateMutability":"nonpayable"},{"type":"function","name":"REWARD_PERCENT_BP","inputs":[],"outputs":[{"name":"","type":"uint256","internalType":"uint256"}],"stateMutability":"view"},{"type":"function","name":"adminUpdateProject","inputs":[{"name":"projectId","type":"string","internalType":"string"},{"name":"newDeadline","type":"uint256","internalType":"uint256"},{"name":"newGoal","type":"uint256","internalType":"uint256"}],"outputs":[],"stateMutability":"nonpayable"},{"type":"function","name":"allProjectIds","inputs":[{"name":"","type":"uint256","internalType":"uint256"}],"outputs":[{"name":"","type":"string","internalType":"string"}],"stateMutability":"view"},{"type":"function","name":"cancelProject","inputs":[{"name":"projectId","type":"string","internalType":"string"}],"outputs":[],"stateMutability":"nonpayable"},{"type":"function","name":"claimRewards","inputs":[{"name":"projectId","type":"string","internalType":"string"}],"outputs":[],"stateMutability":"nonpayable"},{"type":"function","name":"createProject","inputs":[{"name":"id","type":"string","internalType":"string"},{"name":"title","type":"string","internalType":"string"},{"name":"description","type":"string","internalType":"string"},{"name":"fundingGoal","type":"uint256","internalType":"uint256"},{"name":"deadline","type":"uint256","internalType":"uint256"}],"outputs":[],"stateMutability":"nonpayable"},{"type":"function","name":"getAllProjects","inputs":[],"outputs":[{"name":"","type":"tuple[]","internalType":"struct IStakeStream.Project[]","components":[{"name":"id","type":"string","internalType":"string"},{"name":"title","type":"string","internalType":"string"},{"name":"description","type":"string","internalType":"string"},{"name":"fundingGoal","type":"uint256","internalType":"uint256"},{"name":"currentStake","type":"uint256","internalType":"uint256"},{"name":"deadline","type":"uint256","internalType":"uint256"},{"name":"owner","type":"address","internalType":"address"},{"name":"status","type":"uint8","internalType":"enum IStakeStream.ProjectStatus"},{"name":"listed","type":"bool","internalType":"bool"},{"name":"createdAt","type":"uint256","internalType":"uint256"}]}],"stateMutability":"view"},{"type":"function","name":"getProject","inputs":[{"name":"projectId","type":"string","internalType":"string"}],"outputs":[{"name":"","type":"tuple","internalType":"struct IStakeStream.Project","components":[{"name":"id","type":"string","internalType":"string"},{"name":"title","type":"string","internalType":"string"},{"name":"description","type":"string","internalType":"string"},{"name":"fundingGoal","type":"uint256","internalType":"uint256"},{"name":"currentStake","type":"uint256","internalType":"uint256"},{"name":"deadline","type":"uint256","internalType":"uint256"},{"name":"owner","type":"address","internalType":"address"},{"name":"status","type":"uint8","internalType":"enum IStakeStream.ProjectStatus"},{"name":"listed","type":"bool","internalType":"bool"},{"name":"createdAt","type":"uint256","internalType":"uint256"}]}],"stateMutability":"view"},{"type":"function","name":"getProjectProgress","inputs":[{"name":"projectId","type":"string","internalType":"string"}],"outputs":[{"name":"","type":"uint256","internalType":"uint256"}],"stateMutability":"view"},{"type":"function","name":"getUserStake","inputs":[{"name":"projectId","type":"string","internalType":"string"},{"name":"user","type":"address","internalType":"address"}],"outputs":[{"name":"","type":"uint256","internalType":"uint256"}],"stateMutability":"view"},{"type":"function","name":"hideProject","inputs":[{"name":"projectId","type":"string","internalType":"string"}],"outputs":[],"stateMutability":"nonpayable"},{"type":"function","name":"owner","inputs":[],"outputs":[{"name":"","type":"address","internalType":"address"}],"stateMutability":"view"},{"type":"function","name":"projects","inputs":[{"name":"","type":"string","internalType":"string"}],"outputs":[{"name":"id","type":"string","internalType":"string"},{"name":"title","type":"string","internalType":"string"},{"name":"description","type":"string","internalType":"string"},{"name":"fundingGoal","type":"uint256","internalType":"uint256"},{"name":"currentStake","type":"uint256","internalType":"uint256"},{"name":"deadline","type":"uint256","internalType":"uint256"},{"name":"owner","type":"address","internalType":"address"},{"name":"status","type":"uint8","internalType":"enum IStakeStream.ProjectStatus"},{"name":"listed","type":"bool","internalType":"bool"},{"name":"createdAt","type":"uint256","internalType":"uint256"}],"stateMutability":"view"},{"type":"function","name":"renounceOwnership","inputs":[],"outputs":[],"stateMutability":"nonpayable"},{"type":"function","name":"stake","inputs":[{"name":"projectId","type":"string","internalType":"string"},{"name":"amount","type":"uint256","internalType":"uint256"}],"outputs":[],"stateMutability":"nonpayable"},{"type":"function","name":"transferOwnership","inputs":[{"name":"newOwner","type":"address","internalType":"address"}],"outputs":[],"stateMutability":"nonpayable"},{"type":"function","name":"usdcToken","inputs":[],"outputs":[{"name":"","type":"address","internalType":"contract IERC20"}],"stateMutability":"view"},{"type":"function","name":"userStakes","inputs":[{"name":"","type":"string","internalType":"string"},{"name":"","type":"address","internalType":"address"}],"outputs":[{"name":"","type":"uint256","internalType":"uint256"}],"stateMutability":"view"},{"type":"event","name":"OwnershipTransferred","inputs":[{"name":"previousOwner","type":"address","indexed":true,"internalType":"address"},{"name":"newOwner","type":"address","indexed":true,"internalType":"address"}],"anonymous":false},{"type":"event","name":"ProjectCanceled","inputs":[{"name":"projectId","type":"string","indexed":true,"internalType":"string"}],"anonymous":false},{"type":"event","name":"ProjectCompleted","inputs":[{"name":"projectId","type":"string","indexed":true,"internalType":"string"}],"anonymous":false},{"type":"event","name":"ProjectCreated","inputs":[{"name":"projectId","type":"string","indexed":true,"internalType":"string"},{"name":"owner","type":"address","indexed":false,"internalType":"address"}],"anonymous":false},{"type":"event","name":"ProjectHidden","inputs":[{"name":"projectId","type":"string","indexed":true,"internalType":"string"}],"anonymous":false},{"type":"event","name":"ProjectListed","inputs":[{"name":"projectId","type":"string","indexed":true,"internalType":"string"}],"anonymous":false},{"type":"event","name":"ProjectUpdated","inputs":[{"name":"projectId","type":"string","indexed":true,"internalType":"string"},{"name":"newDeadline","type":"uint256","indexed":false,"internalType":"uint256"},{"name":"newGoal","type":"uint256","indexed":false,"internalType":"uint256"}],"anonymous":false},{"type":"event","name":"RewardsDistributed","inputs":[{"name":"projectId","type":"string","indexed":true,"internalType":"string"},{"name":"user","type":"address","indexed":false,"internalType":"address"},{"name":"amount","type":"uint256","indexed":false,"internalType":"uint256"}],"anonymous":false},{"type":"event","name":"Staked","inputs":[{"name":"projectId","type":"string","indexed":true,"internalType":"string"},{"name":"user","type":"address","indexed":false,"internalType":"address"},{"name":"amount","type":"uint256","indexed":false,"internalType":"uint256"}],"anonymous":false},{"type":"error","name":"OwnableInvalidOwner","inputs":[{"name":"owner","type":"address","internalType":"address"}]},{"type":"error","name":"OwnableUnauthorizedAccount","inputs":[{"name":"account","type":"address","internalType":"address"}]}],"bytecode":{"object":"0x60a060405234801561000f575f5ffd5b50604051613c0b380380613c0b8339818101604052810190610031919061020b565b335f73ffffffffffffffffffffffffffffffffffffffff168173ffffffffffffffffffffffffffffffffffffffff16036100a2575f6040517f1e4fbdf70000000000000000000000000000000000000000000000000000000081526004016100999190610245565b60405180910390fd5b6100b1816100ec60201b60201c565b508073ffffffffffffffffffffffffffffffffffffffff1660808173ffffffffffffffffffffffffffffffffffffffff16815250505061025e565b5f5f5f9054906101000a900473ffffffffffffffffffffffffffffffffffffffff169050815f5f6101000a81548173ffffffffffffffffffffffffffffffffffffffff021916908373ffffffffffffffffffffffffffffffffffffffff1602179055508173ffffffffffffffffffffffffffffffffffffffff168173ffffffffffffffffffffffffffffffffffffffff167f8be0079c531659141344cd1fd0a4f28419497f9722a3daafe3b4186f6b6457e060405160405180910390a35050565b5f5ffd5b5f73ffffffffffffffffffffffffffffffffffffffff82169050919050565b5f6101da826101b1565b9050919050565b6101ea816101d0565b81146101f4575f5ffd5b50565b5f81519050610205816101e1565b92915050565b5f602082840312156102205761021f6101ad565b5b5f61022d848285016101f7565b91505092915050565b61023f816101d0565b82525050565b5f6020820190506102585f830184610236565b92915050565b6080516139876102845f395f81816107b2015281816109d7015261179701526139875ff3fe608060405234801561000f575f5ffd5b5060043610610114575f3560e01c806391c9b268116100a0578063a99082531161006f578063a9908253146102d1578063c77ffa11146102ed578063d19fa04e1461031d578063f11a0cd11461034d578063f2fde38b1461036b57610114565b806391c9b268146102305780639494c8ae14610269578063953eb28f14610285578063a394c3a6146102b557610114565b80634fa691e2116100e75780634fa691e21461019e5780636db2b063146101ce578063715018a6146101ea57806380d03829146101f45780638da5cb5b1461021257610114565b8063056c29ee1461011857806311eac855146101345780632a396e91146101525780633f4b050214610182575b5f5ffd5b610132600480360381019061012d91906122cc565b610387565b005b61013c6107b0565b604051610149919061241d565b60405180910390f35b61016c600480360381019061016791906125a9565b6107d4565b6040516101799190612612565b60405180910390f35b61019c6004803603810190610197919061262b565b61080c565b005b6101b860048036038101906101b3919061262b565b610b08565b6040516101c59190612866565b60405180910390f35b6101e860048036038101906101e39190612886565b610dc6565b005b6101f2610f3b565b005b6101fc610f4e565b6040516102099190612a97565b60405180910390f35b61021a61140a565b6040516102279190612ac6565b60405180910390f35b61024a60048036038101906102459190612adf565b611431565b6040516102609a99989796959493929190612b8c565b60405180910390f35b610283600480360381019061027e9190612c3b565b611664565b005b61029f600480360381019061029a9190612c98565b6119d4565b6040516102ac9190612cc3565b60405180910390f35b6102cf60048036038101906102ca919061262b565b611a7a565b005b6102eb60048036038101906102e6919061262b565b611b92565b005b61030760048036038101906103029190612ce3565b611c82565b6040516103149190612612565b60405180910390f35b6103376004803603810190610332919061262b565b611ce8565b6040516103449190612612565b60405180910390f35b610355611fd8565b6040516103629190612612565b60405180910390f35b61038560048036038101906103809190612d40565b611fde565b005b61038f612062565b4281116103d1576040517f08c379a00000000000000000000000000000000000000000000000000000000081526004016103c890612db5565b60405180910390fd5b5f8888905011610416576040517f08c379a000000000000000000000000000000000000000000000000000000000815260040161040d90612e1d565b60405180910390fd5b5f60018989604051610429929190612e69565b9081526020016040518091039020600701541461047b576040517f08c379a000000000000000000000000000000000000000000000000000000000815260040161047290612ecb565b60405180910390fd5b60405180610140016040528089898080601f0160208091040260200160405190810160405280939291908181526020018383808284375f81840152601f19601f82011690508083019250505050505050815260200187878080601f0160208091040260200160405190810160405280939291908181526020018383808284375f81840152601f19601f82011690508083019250505050505050815260200185858080601f0160208091040260200160405190810160405280939291908181526020018383808284375f81840152601f19601f8201169050808301925050505050505081526020018381526020015f81526020018281526020013373ffffffffffffffffffffffffffffffffffffffff1681526020015f60028111156105a3576105a26126f4565b5b815260200160011515815260200142815250600189896040516105c7929190612e69565b90815260200160405180910390205f820151815f0190816105e891906130dd565b5060208201518160010190816105fe91906130dd565b50604082015181600201908161061491906130dd565b50606082015181600301556080820151816004015560a0820151816005015560c0820151816006015f6101000a81548173ffffffffffffffffffffffffffffffffffffffff021916908373ffffffffffffffffffffffffffffffffffffffff16021790555060e08201518160060160146101000a81548160ff021916908360028111156106a4576106a36126f4565b5b02179055506101008201518160060160156101000a81548160ff02191690831515021790555061012082015181600701559050506003888890918060018154018082558091505060019003905f5260205f20015f9091929091929091929091925091826107129291906131b6565b508787604051610723929190612e69565b60405180910390207f15d48131aaa6f330e286e6994c84b497c95a58b0c9d91ca5370322674df881f03360405161075a9190612ac6565b60405180910390a28787604051610772929190612e69565b60405180910390207fd0a6c852fb38f40f4e71fabcbaaf3074b40facf08af16a0cbd6a7dc6d96c567960405160405180910390a25050505050505050565b7f000000000000000000000000000000000000000000000000000000000000000081565b600282805160208101820180518482526020830160208501208183528095505050505050602052805f5260405f205f91509150505481565b5f6001838360405161081f929190612e69565b9081526020016040518091039020905060016002811115610843576108426126f4565b5b8160060160149054906101000a900460ff166002811115610867576108666126f4565b5b146108a7576040517f08c379a000000000000000000000000000000000000000000000000000000000815260040161089e906132cd565b60405180910390fd5b5f600284846040516108ba929190612e69565b90815260200160405180910390205f3373ffffffffffffffffffffffffffffffffffffffff1673ffffffffffffffffffffffffffffffffffffffff1681526020019081526020015f205490505f8111610948576040517f08c379a000000000000000000000000000000000000000000000000000000000815260040161093f90613335565b60405180910390fd5b5f6127106105dc8361095a9190613380565b61096491906133ee565b90505f8183610973919061341e565b90505f60028787604051610988929190612e69565b90815260200160405180910390205f3373ffffffffffffffffffffffffffffffffffffffff1673ffffffffffffffffffffffffffffffffffffffff1681526020019081526020015f20819055507f000000000000000000000000000000000000000000000000000000000000000073ffffffffffffffffffffffffffffffffffffffff1663a9059cbb33836040518363ffffffff1660e01b8152600401610a30929190613451565b6020604051808303815f875af1158015610a4c573d5f5f3e3d5ffd5b505050506040513d601f19601f82011682018060405250810190610a7091906134a2565b610aaf576040517f08c379a0000000000000000000000000000000000000000000000000000000008152600401610aa690613517565b60405180910390fd5b8585604051610abf929190612e69565b60405180910390207f542fccf4e7ad859dffa6f1faccfbe529e1de3f926d9e33b1f0a015cced4be4583384604051610af8929190613451565b60405180910390a2505050505050565b610b106121b1565b60018383604051610b22929190612e69565b9081526020016040518091039020604051806101400160405290815f82018054610b4b90612f16565b80601f0160208091040260200160405190810160405280929190818152602001828054610b7790612f16565b8015610bc25780601f10610b9957610100808354040283529160200191610bc2565b820191905f5260205f20905b815481529060010190602001808311610ba557829003601f168201915b50505050508152602001600182018054610bdb90612f16565b80601f0160208091040260200160405190810160405280929190818152602001828054610c0790612f16565b8015610c525780601f10610c2957610100808354040283529160200191610c52565b820191905f5260205f20905b815481529060010190602001808311610c3557829003601f168201915b50505050508152602001600282018054610c6b90612f16565b80601f0160208091040260200160405190810160405280929190818152602001828054610c9790612f16565b8015610ce25780601f10610cb957610100808354040283529160200191610ce2565b820191905f5260205f20905b815481529060010190602001808311610cc557829003601f168201915b50505050508152602001600382015481526020016004820154815260200160058201548152602001600682015f9054906101000a900473ffffffffffffffffffffffffffffffffffffffff1673ffffffffffffffffffffffffffffffffffffffff1673ffffffffffffffffffffffffffffffffffffffff1681526020016006820160149054906101000a900460ff166002811115610d8357610d826126f4565b5b6002811115610d9557610d946126f4565b5b81526020016006820160159054906101000a900460ff16151515158152602001600782015481525050905092915050565b610dce612062565b5f60018585604051610de1929190612e69565b908152602001604051809103902090505f816007015411610e37576040517f08c379a0000000000000000000000000000000000000000000000000000000008152600401610e2e9061357f565b60405180910390fd5b5f831115610e8b57428311610e81576040517f08c379a0000000000000000000000000000000000000000000000000000000008152600401610e78906135e7565b60405180910390fd5b8281600501819055505b5f821115610ee35780600401548211610ed9576040517f08c379a0000000000000000000000000000000000000000000000000000000008152600401610ed09061364f565b60405180910390fd5b8181600301819055505b8484604051610ef3929190612e69565b60405180910390207fc01e2e266f76b7dd134937f561fe7803bcb9e30eb91a679efe161bd04cca7ea88484604051610f2c92919061366d565b60405180910390a25050505050565b610f43612062565b610f4c5f6120e9565b565b60605f5f90505f5f90505b600380549050811015610fd157600160038281548110610f7c57610f7b613694565b5b905f5260205f2001604051610f919190613741565b908152602001604051809103902060060160159054906101000a900460ff1615610fc4578180610fc090613757565b9250505b8080600101915050610f59565b505f8167ffffffffffffffff811115610fed57610fec61244a565b5b60405190808252806020026020018201604052801561102657816020015b6110136121b1565b81526020019060019003908161100b5790505b5090505f5f90505f5f90505b600380549050811015611400575f6003828154811061105457611053613694565b5b905f5260205f2001805461106790612f16565b80601f016020809104026020016040519081016040528092919081815260200182805461109390612f16565b80156110de5780601f106110b5576101008083540402835291602001916110de565b820191905f5260205f20905b8154815290600101906020018083116110c157829003601f168201915b505050505090506001816040516110f591906137ce565b908152602001604051809103902060060160159054906101000a900460ff16156113f25760018160405161112991906137ce565b9081526020016040518091039020604051806101400160405290815f8201805461115290612f16565b80601f016020809104026020016040519081016040528092919081815260200182805461117e90612f16565b80156111c95780601f106111a0576101008083540402835291602001916111c9565b820191905f5260205f20905b8154815290600101906020018083116111ac57829003601f168201915b505050505081526020016001820180546111e290612f16565b80601f016020809104026020016040519081016040528092919081815260200182805461120e90612f16565b80156112595780601f1061123057610100808354040283529160200191611259565b820191905f5260205f20905b81548152906001019060200180831161123c57829003601f168201915b5050505050815260200160028201805461127290612f16565b80601f016020809104026020016040519081016040528092919081815260200182805461129e90612f16565b80156112e95780601f106112c0576101008083540402835291602001916112e9565b820191905f5260205f20905b8154815290600101906020018083116112cc57829003601f168201915b50505050508152602001600382015481526020016004820154815260200160058201548152602001600682015f9054906101000a900473ffffffffffffffffffffffffffffffffffffffff1673ffffffffffffffffffffffffffffffffffffffff1673ffffffffffffffffffffffffffffffffffffffff1681526020016006820160149054906101000a900460ff16600281111561138a576113896126f4565b5b600281111561139c5761139b6126f4565b5b81526020016006820160159054906101000a900460ff161515151581526020016007820154815250508484815181106113d8576113d7613694565b5b602002602001018190525082806113ee90613757565b9350505b508080600101915050611032565b5081935050505090565b5f5f5f9054906101000a900473ffffffffffffffffffffffffffffffffffffffff16905090565b6001818051602081018201805184825260208301602085012081835280955050505050505f91509050805f01805461146890612f16565b80601f016020809104026020016040519081016040528092919081815260200182805461149490612f16565b80156114df5780601f106114b6576101008083540402835291602001916114df565b820191905f5260205f20905b8154815290600101906020018083116114c257829003601f168201915b5050505050908060010180546114f490612f16565b80601f016020809104026020016040519081016040528092919081815260200182805461152090612f16565b801561156b5780601f106115425761010080835404028352916020019161156b565b820191905f5260205f20905b81548152906001019060200180831161154e57829003601f168201915b50505050509080600201805461158090612f16565b80601f01602080910402602001604051908101604052809291908181526020018280546115ac90612f16565b80156115f75780601f106115ce576101008083540402835291602001916115f7565b820191905f5260205f20905b8154815290600101906020018083116115da57829003601f168201915b505050505090806003015490806004015490806005015490806006015f9054906101000a900473ffffffffffffffffffffffffffffffffffffffff16908060060160149054906101000a900460ff16908060060160159054906101000a900460ff1690806007015490508a565b5f60018484604051611677929190612e69565b908152602001604051809103902090505f600281111561169a576116996126f4565b5b8160060160149054906101000a900460ff1660028111156116be576116bd6126f4565b5b146116fe576040517f08c379a00000000000000000000000000000000000000000000000000000000081526004016116f59061382e565b60405180910390fd5b80600501544210611744576040517f08c379a000000000000000000000000000000000000000000000000000000000815260040161173b90613896565b60405180910390fd5b8060060160159054906101000a900460ff16611795576040517f08c379a000000000000000000000000000000000000000000000000000000000815260040161178c906138fe565b60405180910390fd5b7f000000000000000000000000000000000000000000000000000000000000000073ffffffffffffffffffffffffffffffffffffffff166323b872dd3330856040518463ffffffff1660e01b81526004016117f29392919061391c565b6020604051808303815f875af115801561180e573d5f5f3e3d5ffd5b505050506040513d601f19601f8201168201806040525081019061183291906134a2565b611871576040517f08c379a000000000000000000000000000000000000000000000000000000000815260040161186890613517565b60405180910390fd5b81816004015f828254611884919061341e565b92505081905550816002858560405161189e929190612e69565b90815260200160405180910390205f3373ffffffffffffffffffffffffffffffffffffffff1673ffffffffffffffffffffffffffffffffffffffff1681526020019081526020015f205f8282546118f5919061341e565b92505081905550838360405161190c929190612e69565b60405180910390207fe704d6dc8a9b67b1c77083755dbee778ab04711df13ef26fef8670b80467f9bc3384604051611945929190613451565b60405180910390a280600301548160040154106119ce5760018160060160146101000a81548160ff02191690836002811115611984576119836126f4565b5b02179055508383604051611999929190612e69565b60405180910390207fb5736ea36f652f53943e5ca68e50ba01c8e8f153af85bda4165e0ef1018241fa60405160405180910390a25b50505050565b600381815481106119e3575f80fd5b905f5260205f20015f9150905080546119fb90612f16565b80601f0160208091040260200160405190810160405280929190818152602001828054611a2790612f16565b8015611a725780601f10611a4957610100808354040283529160200191611a72565b820191905f5260205f20905b815481529060010190602001808311611a5557829003601f168201915b505050505081565b611a82612062565b5f60018383604051611a95929190612e69565b908152602001604051809103902090505f6002811115611ab857611ab76126f4565b5b8160060160149054906101000a900460ff166002811115611adc57611adb6126f4565b5b14611b1c576040517f08c379a0000000000000000000000000000000000000000000000000000000008152600401611b139061382e565b60405180910390fd5b60028160060160146101000a81548160ff02191690836002811115611b4457611b436126f4565b5b02179055508282604051611b59929190612e69565b60405180910390207fef7348c8c4387878a8d92dacf856fb813ff48fd98d31fce0e23d2f3a154ebe1560405160405180910390a2505050565b611b9a612062565b5f60018383604051611bad929190612e69565b90815260200160405180910390206007015411611bff576040517f08c379a0000000000000000000000000000000000000000000000000000000008152600401611bf69061357f565b60405180910390fd5b5f60018383604051611c12929190612e69565b908152602001604051809103902060060160156101000a81548160ff0219169083151502179055508181604051611c4a929190612e69565b60405180910390207f30e00e0b1b45370819bd74388bd21379fb513daef9cef1d3dbe21de4f56f224c60405160405180910390a25050565b5f60028484604051611c95929190612e69565b90815260200160405180910390205f8373ffffffffffffffffffffffffffffffffffffffff1673ffffffffffffffffffffffffffffffffffffffff1681526020019081526020015f205490509392505050565b5f5f60018484604051611cfc929190612e69565b9081526020016040518091039020604051806101400160405290815f82018054611d2590612f16565b80601f0160208091040260200160405190810160405280929190818152602001828054611d5190612f16565b8015611d9c5780601f10611d7357610100808354040283529160200191611d9c565b820191905f5260205f20905b815481529060010190602001808311611d7f57829003601f168201915b50505050508152602001600182018054611db590612f16565b80601f0160208091040260200160405190810160405280929190818152602001828054611de190612f16565b8015611e2c5780601f10611e0357610100808354040283529160200191611e2c565b820191905f5260205f20905b815481529060010190602001808311611e0f57829003601f168201915b50505050508152602001600282018054611e4590612f16565b80601f0160208091040260200160405190810160405280929190818152602001828054611e7190612f16565b8015611ebc5780601f10611e9357610100808354040283529160200191611ebc565b820191905f5260205f20905b815481529060010190602001808311611e9f57829003601f168201915b50505050508152602001600382015481526020016004820154815260200160058201548152602001600682015f9054906101000a900473ffffffffffffffffffffffffffffffffffffffff1673ffffffffffffffffffffffffffffffffffffffff1673ffffffffffffffffffffffffffffffffffffffff1681526020016006820160149054906101000a900460ff166002811115611f5d57611f5c6126f4565b5b6002811115611f6f57611f6e6126f4565b5b81526020016006820160159054906101000a900460ff1615151515815260200160078201548152505090505f816060015103611fae575f915050611fd2565b806060015160648260800151611fc49190613380565b611fce91906133ee565b9150505b92915050565b6105dc81565b611fe6612062565b5f73ffffffffffffffffffffffffffffffffffffffff168173ffffffffffffffffffffffffffffffffffffffff1603612056575f6040517f1e4fbdf700000000000000000000000000000000000000000000000000000000815260040161204d9190612ac6565b60405180910390fd5b61205f816120e9565b50565b61206a6121aa565b73ffffffffffffffffffffffffffffffffffffffff1661208861140a565b73ffffffffffffffffffffffffffffffffffffffff16146120e7576120ab6121aa565b6040517f118cdaa70000000000000000000000000000000000000000000000000000000081526004016120de9190612ac6565b60405180910390fd5b565b5f5f5f9054906101000a900473ffffffffffffffffffffffffffffffffffffffff169050815f5f6101000a81548173ffffffffffffffffffffffffffffffffffffffff021916908373ffffffffffffffffffffffffffffffffffffffff1602179055508173ffffffffffffffffffffffffffffffffffffffff168173ffffffffffffffffffffffffffffffffffffffff167f8be0079c531659141344cd1fd0a4f28419497f9722a3daafe3b4186f6b6457e060405160405180910390a35050565b5f33905090565b6040518061014001604052806060815260200160608152602001606081526020015f81526020015f81526020015f81526020015f73ffffffffffffffffffffffffffffffffffffffff1681526020015f6002811115612213576122126126f4565b5b81526020015f151581526020015f81525090565b5f604051905090565b5f5ffd5b5f5ffd5b5f5ffd5b5f5ffd5b5f5ffd5b5f5f83601f84011261225957612258612238565b5b8235905067ffffffffffffffff8111156122765761227561223c565b5b60208301915083600182028301111561229257612291612240565b5b9250929050565b5f819050919050565b6122ab81612299565b81146122b5575f5ffd5b50565b5f813590506122c6816122a2565b92915050565b5f5f5f5f5f5f5f5f60a0898b0312156122e8576122e7612230565b5b5f89013567ffffffffffffffff81111561230557612304612234565b5b6123118b828c01612244565b9850985050602089013567ffffffffffffffff81111561233457612333612234565b5b6123408b828c01612244565b9650965050604089013567ffffffffffffffff81111561236357612362612234565b5b61236f8b828c01612244565b945094505060606123828b828c016122b8565b92505060806123938b828c016122b8565b9150509295985092959890939650565b5f73ffffffffffffffffffffffffffffffffffffffff82169050919050565b5f819050919050565b5f6123e56123e06123db846123a3565b6123c2565b6123a3565b9050919050565b5f6123f6826123cb565b9050919050565b5f612407826123ec565b9050919050565b612417816123fd565b82525050565b5f6020820190506124305f83018461240e565b92915050565b5f5ffd5b5f601f19601f8301169050919050565b7f4e487b71000000000000000000000000000000000000000000000000000000005f52604160045260245ffd5b6124808261243a565b810181811067ffffffffffffffff8211171561249f5761249e61244a565b5b80604052505050565b5f6124b1612227565b90506124bd8282612477565b919050565b5f67ffffffffffffffff8211156124dc576124db61244a565b5b6124e58261243a565b9050602081019050919050565b828183375f83830152505050565b5f61251261250d846124c2565b6124a8565b90508281526020810184848401111561252e5761252d612436565b5b6125398482856124f2565b509392505050565b5f82601f83011261255557612554612238565b5b8135612565848260208601612500565b91505092915050565b5f612578826123a3565b9050919050565b6125888161256e565b8114612592575f5ffd5b50565b5f813590506125a38161257f565b92915050565b5f5f604083850312156125bf576125be612230565b5b5f83013567ffffffffffffffff8111156125dc576125db612234565b5b6125e885828601612541565b92505060206125f985828601612595565b9150509250929050565b61260c81612299565b82525050565b5f6020820190506126255f830184612603565b92915050565b5f5f6020838503121561264157612640612230565b5b5f83013567ffffffffffffffff81111561265e5761265d612234565b5b61266a85828601612244565b92509250509250929050565b5f81519050919050565b5f82825260208201905092915050565b8281835e5f83830152505050565b5f6126a882612676565b6126b28185612680565b93506126c2818560208601612690565b6126cb8161243a565b840191505092915050565b6126df81612299565b82525050565b6126ee8161256e565b82525050565b7f4e487b71000000000000000000000000000000000000000000000000000000005f52602160045260245ffd5b60038110612732576127316126f4565b5b50565b5f81905061274282612721565b919050565b5f61275182612735565b9050919050565b61276181612747565b82525050565b5f8115159050919050565b61277b81612767565b82525050565b5f61014083015f8301518482035f86015261279c828261269e565b915050602083015184820360208601526127b6828261269e565b915050604083015184820360408601526127d0828261269e565b91505060608301516127e560608601826126d6565b5060808301516127f860808601826126d6565b5060a083015161280b60a08601826126d6565b5060c083015161281e60c08601826126e5565b5060e083015161283160e0860182612758565b50610100830151612846610100860182612772565b5061012083015161285b6101208601826126d6565b508091505092915050565b5f6020820190508181035f83015261287e8184612781565b905092915050565b5f5f5f5f6060858703121561289e5761289d612230565b5b5f85013567ffffffffffffffff8111156128bb576128ba612234565b5b6128c787828801612244565b945094505060206128da878288016122b8565b92505060406128eb878288016122b8565b91505092959194509250565b5f81519050919050565b5f82825260208201905092915050565b5f819050602082019050919050565b5f61014083015f8301518482035f86015261293b828261269e565b91505060208301518482036020860152612955828261269e565b9150506040830151848203604086015261296f828261269e565b915050606083015161298460608601826126d6565b50608083015161299760808601826126d6565b5060a08301516129aa60a08601826126d6565b5060c08301516129bd60c08601826126e5565b5060e08301516129d060e0860182612758565b506101008301516129e5610100860182612772565b506101208301516129fa6101208601826126d6565b508091505092915050565b5f612a108383612920565b905092915050565b5f602082019050919050565b5f612a2e826128f7565b612a388185612901565b935083602082028501612a4a85612911565b805f5b85811015612a855784840389528151612a668582612a05565b9450612a7183612a18565b925060208a01995050600181019050612a4d565b50829750879550505050505092915050565b5f6020820190508181035f830152612aaf8184612a24565b905092915050565b612ac08161256e565b82525050565b5f602082019050612ad95f830184612ab7565b92915050565b5f60208284031215612af457612af3612230565b5b5f82013567ffffffffffffffff811115612b1157612b10612234565b5b612b1d84828501612541565b91505092915050565b5f82825260208201905092915050565b5f612b4082612676565b612b4a8185612b26565b9350612b5a818560208601612690565b612b638161243a565b840191505092915050565b612b7781612747565b82525050565b612b8681612767565b82525050565b5f610140820190508181035f830152612ba5818d612b36565b90508181036020830152612bb9818c612b36565b90508181036040830152612bcd818b612b36565b9050612bdc606083018a612603565b612be96080830189612603565b612bf660a0830188612603565b612c0360c0830187612ab7565b612c1060e0830186612b6e565b612c1e610100830185612b7d565b612c2c610120830184612603565b9b9a5050505050505050505050565b5f5f5f60408486031215612c5257612c51612230565b5b5f84013567ffffffffffffffff811115612c6f57612c6e612234565b5b612c7b86828701612244565b93509350506020612c8e868287016122b8565b9150509250925092565b5f60208284031215612cad57612cac612230565b5b5f612cba848285016122b8565b91505092915050565b5f6020820190508181035f830152612cdb8184612b36565b905092915050565b5f5f5f60408486031215612cfa57612cf9612230565b5b5f84013567ffffffffffffffff811115612d1757612d16612234565b5b612d2386828701612244565b93509350506020612d3686828701612595565b9150509250925092565b5f60208284031215612d5557612d54612230565b5b5f612d6284828501612595565b91505092915050565b7f446561646c696e65206d75737420626520696e206675747572650000000000005f82015250565b5f612d9f601a83612b26565b9150612daa82612d6b565b602082019050919050565b5f6020820190508181035f830152612dcc81612d93565b9050919050565b7f50726f6a656374204944207265717569726564000000000000000000000000005f82015250565b5f612e07601383612b26565b9150612e1282612dd3565b602082019050919050565b5f6020820190508181035f830152612e3481612dfb565b9050919050565b5f81905092915050565b5f612e508385612e3b565b9350612e5d8385846124f2565b82840190509392505050565b5f612e75828486612e45565b91508190509392505050565b7f50726f6a656374204944206578697374730000000000000000000000000000005f82015250565b5f612eb5601183612b26565b9150612ec082612e81565b602082019050919050565b5f6020820190508181035f830152612ee281612ea9565b9050919050565b7f4e487b71000000000000000000000000000000000000000000000000000000005f52602260045260245ffd5b5f6002820490506001821680612f2d57607f821691505b602082108103612f4057612f3f612ee9565b5b50919050565b5f819050815f5260205f209050919050565b5f6020601f8301049050919050565b5f82821b905092915050565b5f60088302612fa27fffffffffffffffffffffffffffffffffffffffffffffffffffffffffffffffff82612f67565b612fac8683612f67565b95508019841693508086168417925050509392505050565b5f612fde612fd9612fd484612299565b6123c2565b612299565b9050919050565b5f819050919050565b612ff783612fc4565b61300b61300382612fe5565b848454612f73565b825550505050565b5f5f905090565b613022613013565b61302d818484612fee565b505050565b5b81811015613050576130455f8261301a565b600181019050613033565b5050565b601f8211156130955761306681612f46565b61306f84612f58565b8101602085101561307e578190505b61309261308a85612f58565b830182613032565b50505b505050565b5f82821c905092915050565b5f6130b55f198460080261309a565b1980831691505092915050565b5f6130cd83836130a6565b9150826002028217905092915050565b6130e682612676565b67ffffffffffffffff8111156130ff576130fe61244a565b5b6131098254612f16565b613114828285613054565b5f60209050601f831160018114613145575f8415613133578287015190505b61313d85826130c2565b8655506131a4565b601f19841661315386612f46565b5f5b8281101561317a57848901518255600182019150602085019450602081019050613155565b868310156131975784890151613193601f8916826130a6565b8355505b6001600288020188555050505b505050505050565b5f82905092915050565b6131c083836131ac565b67ffffffffffffffff8111156131d9576131d861244a565b5b6131e38254612f16565b6131ee828285613054565b5f601f83116001811461321b575f8415613209578287013590505b61321385826130c2565b86555061327a565b601f19841661322986612f46565b5f5b828110156132505784890135825560018201915060208501945060208101905061322b565b8683101561326d5784890135613269601f8916826130a6565b8355505b6001600288020188555050505b50505050505050565b7f50726f6a656374206e6f7420636f6d706c6574656400000000000000000000005f82015250565b5f6132b7601583612b26565b91506132c282613283565b602082019050919050565b5f6020820190508181035f8301526132e4816132ab565b9050919050565b7f4e6f207374616b6520746f20636c61696d0000000000000000000000000000005f82015250565b5f61331f601183612b26565b915061332a826132eb565b602082019050919050565b5f6020820190508181035f83015261334c81613313565b9050919050565b7f4e487b71000000000000000000000000000000000000000000000000000000005f52601160045260245ffd5b5f61338a82612299565b915061339583612299565b92508282026133a381612299565b915082820484148315176133ba576133b9613353565b5b5092915050565b7f4e487b71000000000000000000000000000000000000000000000000000000005f52601260045260245ffd5b5f6133f882612299565b915061340383612299565b925082613413576134126133c1565b5b828204905092915050565b5f61342882612299565b915061343383612299565b925082820190508082111561344b5761344a613353565b5b92915050565b5f6040820190506134645f830185612ab7565b6134716020830184612603565b9392505050565b61348181612767565b811461348b575f5ffd5b50565b5f8151905061349c81613478565b92915050565b5f602082840312156134b7576134b6612230565b5b5f6134c48482850161348e565b91505092915050565b7f5472616e73666572206661696c656400000000000000000000000000000000005f82015250565b5f613501600f83612b26565b915061350c826134cd565b602082019050919050565b5f6020820190508181035f83015261352e816134f5565b9050919050565b7f50726f6a65637420646f65736e277420657869737400000000000000000000005f82015250565b5f613569601583612b26565b915061357482613535565b602082019050919050565b5f6020820190508181035f8301526135968161355d565b9050919050565b7f496e76616c696420646561646c696e65000000000000000000000000000000005f82015250565b5f6135d1601083612b26565b91506135dc8261359d565b602082019050919050565b5f6020820190508181035f8301526135fe816135c5565b9050919050565b7f476f616c2062656c6f772063757272656e74207374616b6500000000000000005f82015250565b5f613639601883612b26565b915061364482613605565b602082019050919050565b5f6020820190508181035f8301526136668161362d565b9050919050565b5f6040820190506136805f830185612603565b61368d6020830184612603565b9392505050565b7f4e487b71000000000000000000000000000000000000000000000000000000005f52603260045260245ffd5b5f81546136cd81612f16565b6136d78186612e3b565b9450600182165f81146136f1576001811461370657613738565b60ff1983168652811515820286019350613738565b61370f85612f46565b5f5b8381101561373057815481890152600182019150602081019050613711565b838801955050505b50505092915050565b5f61374c82846136c1565b915081905092915050565b5f61376182612299565b91507fffffffffffffffffffffffffffffffffffffffffffffffffffffffffffffffff820361379357613792613353565b5b600182019050919050565b5f6137a882612676565b6137b28185612e3b565b93506137c2818560208601612690565b80840191505092915050565b5f6137d9828461379e565b915081905092915050565b7f50726f6a656374206e6f742061637469766500000000000000000000000000005f82015250565b5f613818601283612b26565b9150613823826137e4565b602082019050919050565b5f6020820190508181035f8301526138458161380c565b9050919050565b7f46756e64696e6720656e646564000000000000000000000000000000000000005f82015250565b5f613880600d83612b26565b915061388b8261384c565b602082019050919050565b5f6020820190508181035f8301526138ad81613874565b9050919050565b7f50726f6a656374206e6f74206c697374656400000000000000000000000000005f82015250565b5f6138e8601283612b26565b91506138f3826138b4565b602082019050919050565b5f6020820190508181035f830152613915816138dc565b9050919050565b5f60608201905061392f5f830186612ab7565b61393c6020830185612ab7565b6139496040830184612603565b94935050505056fea2646970667358221220db22dd915550e9f1bf8cb3b143176f05a003ffa22f44a86fa98a43b9de6ea47664736f6c634300081e0033","linkReferences":{}},"methodIdentifiers":{"REWARD_PERCENT_BP()":"f11a0cd1","adminUpdateProject(string,uint256,uint256)":"6db2b063","allProjectIds(uint256)":"953eb28f","cancelProject(string)":"a394c3a6","claimRewards(string)":"3f4b0502","createProject(string,string,string,uint256,uint256)":"056c29ee","getAllProjects()":"80d03829","getProject(string)":"4fa691e2","getProjectProgress(string)":"d19fa04e","getUserStake(string,address)":"c77ffa11","hideProject(string)":"a9908253","owner()":"8da5cb5b","projects(string)":"91c9b268","renounceOwnership()":"715018a6","stake(string,uint256)":"9494c8ae","transferOwnership(address)":"f2fde38b","usdcToken()":"11eac855","userStakes(string,address)":"2a396e91"},"id":22}